{
    "contractName": "CryptoRide",
    "abi": [
        {
            "inputs": [
                {
                    "internalType": "uint16",
                    "name": "_id",
                    "type": "uint16"
                }
            ],
            "name": "bidForRide",
            "outputs": [],
            "stateMutability": "payable",
            "type": "function"
        },
        {
            "inputs": [
                {
                    "internalType": "uint16",
                    "name": "_id",
                    "type": "uint16"
                }
            ],
            "name": "closeRide",
            "outputs": [],
            "stateMutability": "nonpayable",
            "type": "function"
        },
        {
            "inputs": [
                {
                    "internalType": "uint16",
                    "name": "_id",
                    "type": "uint16"
                }
            ],
            "name": "getAvSeats",
            "outputs": [
                {
                    "internalType": "uint16",
                    "name": "",
                    "type": "uint16"
                }
            ],
            "stateMutability": "view",
            "type": "function"
        },
        {
            "inputs": [
                {
                    "internalType": "uint16",
                    "name": "_id",
                    "type": "uint16"
                }
            ],
            "name": "getAvailable",
            "outputs": [
                {
                    "internalType": "bool",
                    "name": "",
                    "type": "bool"
                }
            ],
            "stateMutability": "view",
            "type": "function"
        },
        {
            "inputs": [
                {
                    "internalType": "uint16",
                    "name": "_id",
                    "type": "uint16"
                }
            ],
            "name": "getBaseCost",
            "outputs": [
                {
                    "internalType": "uint256",
                    "name": "",
                    "type": "uint256"
                }
            ],
            "stateMutability": "view",
            "type": "function"
        },
        {
            "inputs": [
                {
                    "internalType": "uint16",
                    "name": "_id",
                    "type": "uint16"
                },
                {
                    "internalType": "address",
                    "name": "_bidder",
                    "type": "address"
                }
            ],
            "name": "getBid",
            "outputs": [
                {
                    "internalType": "uint256",
                    "name": "",
                    "type": "uint256"
                }
            ],
            "stateMutability": "view",
            "type": "function"
        },
        {
            "inputs": [
                {
                    "internalType": "uint16",
                    "name": "_id",
                    "type": "uint16"
                }
            ],
            "name": "getDriver",
            "outputs": [
                {
                    "internalType": "address",
                    "name": "",
                    "type": "address"
                }
            ],
            "stateMutability": "view",
            "type": "function"
        },
        {
            "inputs": [
                {
                    "internalType": "uint16",
                    "name": "_id",
                    "type": "uint16"
                }
            ],
            "name": "getFromTime",
            "outputs": [
                {
                    "internalType": "string",
                    "name": "",
                    "type": "string"
                }
            ],
            "stateMutability": "view",
            "type": "function"
        },
        {
            "inputs": [
                {
                    "internalType": "uint16",
                    "name": "_id",
                    "type": "uint16"
                }
            ],
            "name": "getHighestBidder",
            "outputs": [
                {
                    "internalType": "address",
                    "name": "",
                    "type": "address"
                }
            ],
            "stateMutability": "view",
            "type": "function"
        },
        {
            "inputs": [
                {
                    "internalType": "uint16",
                    "name": "_id",
                    "type": "uint16"
                }
            ],
            "name": "getLocation",
            "outputs": [
                {
                    "internalType": "string",
                    "name": "",
                    "type": "string"
                }
            ],
            "stateMutability": "view",
            "type": "function"
        },
        {
            "inputs": [
                {
                    "internalType": "uint16",
                    "name": "_id",
                    "type": "uint16"
                }
            ],
            "name": "getPayed",
            "outputs": [
                {
                    "internalType": "bool",
                    "name": "",
                    "type": "bool"
                }
            ],
            "stateMutability": "view",
            "type": "function"
        },
        {
            "inputs": [
                {
                    "internalType": "uint16",
                    "name": "_id",
                    "type": "uint16"
                },
                {
                    "internalType": "address",
                    "name": "_bidder",
                    "type": "address"
                }
            ],
            "name": "getPreviousBid",
            "outputs": [
                {
                    "internalType": "uint256",
                    "name": "",
                    "type": "uint256"
                }
            ],
            "stateMutability": "view",
            "type": "function"
        },
        {
            "inputs": [
                {
                    "internalType": "uint16",
                    "name": "_id",
                    "type": "uint16"
                }
            ],
            "name": "getRider",
            "outputs": [
                {
                    "internalType": "address",
                    "name": "",
                    "type": "address"
                }
            ],
            "stateMutability": "view",
            "type": "function"
        },
        {
            "inputs": [
                {
                    "internalType": "uint16",
                    "name": "_id",
                    "type": "uint16"
                }
            ],
            "name": "getToTime",
            "outputs": [
                {
                    "internalType": "string",
                    "name": "",
                    "type": "string"
                }
            ],
            "stateMutability": "view",
            "type": "function"
        },
        {
            "inputs": [
                {
                    "internalType": "uint16",
                    "name": "",
                    "type": "uint16"
                }
            ],
            "name": "idToRide",
            "outputs": [
                {
                    "internalType": "address",
                    "name": "highestBidder",
                    "type": "address"
                },
                {
                    "internalType": "address",
                    "name": "rider",
                    "type": "address"
                },
                {
                    "internalType": "address payable",
                    "name": "driver",
                    "type": "address"
                },
                {
                    "internalType": "bool",
                    "name": "available",
                    "type": "bool"
                },
                {
                    "internalType": "bool",
                    "name": "payed",
                    "type": "bool"
                },
                {
                    "internalType": "string",
                    "name": "fromTime",
                    "type": "string"
                },
                {
                    "internalType": "string",
                    "name": "toTime",
                    "type": "string"
                },
                {
                    "internalType": "string",
                    "name": "location",
                    "type": "string"
                },
                {
                    "internalType": "uint256",
                    "name": "baseCost",
                    "type": "uint256"
                },
                {
                    "internalType": "uint16",
                    "name": "avSeats",
                    "type": "uint16"
                }
            ],
            "stateMutability": "view",
            "type": "function"
        },
        {
            "inputs": [
                {
                    "internalType": "uint16",
                    "name": "_id",
                    "type": "uint16"
                }
            ],
            "name": "payRide",
            "outputs": [],
            "stateMutability": "nonpayable",
            "type": "function"
        },
        {
            "inputs": [
                {
                    "internalType": "uint16",
                    "name": "_id",
                    "type": "uint16"
                },
                {
                    "internalType": "string",
                    "name": "_fromTime",
                    "type": "string"
                },
                {
                    "internalType": "string",
                    "name": "_toTime",
                    "type": "string"
                },
                {
                    "internalType": "string",
                    "name": "_location",
                    "type": "string"
                },
                {
                    "internalType": "uint256",
                    "name": "_baseCost",
                    "type": "uint256"
                },
                {
                    "internalType": "uint16",
                    "name": "_avSeats",
                    "type": "uint16"
                }
            ],
            "name": "publishRide",
            "outputs": [],
            "stateMutability": "nonpayable",
            "type": "function"
        }
    ],
    "bytecode": "608060405234801561001057600080fd5b506114c7806100206000396000f3fe6080604052600436106100fe5760003560e01c806379a64ca511610095578063d18db88911610064578063d18db889146103d3578063d974add5146103f3578063eb93e0ff14610413578063f769b3c214610433578063f7acbe2e1461045357600080fd5b806379a64ca5146102e85780637b9db006146103255780637c3365691461036c578063b7be161e146103b357600080fd5b80633e78e81f116100d15780633e78e81f1461022857806350e4dfa61461025c57806368e14cd8146102715780637598b9251461029e57600080fd5b806311c837191461010357806321f77dac1461015d57806322b473d2146101b55780632f0cfec0146101f2575b600080fd5b34801561010f57600080fd5b5061014061011e366004611198565b61ffff166000908152602081905260409020600401546001600160a01b031690565b6040516001600160a01b0390911681526020015b60405180910390f35b34801561016957600080fd5b506101a76101783660046111ba565b61ffff82166000908152602081815260408083206001600160a01b038516845260010190915290205492915050565b604051908152602001610154565b3480156101c157600080fd5b506101406101d0366004611198565b61ffff166000908152602081905260409020600201546001600160a01b031690565b3480156101fe57600080fd5b5061021261020d366004611198565b61048f565b6040516101549a9998979695949392919061124a565b34801561023457600080fd5b506101a7610243366004611198565b61ffff166000908152602081905260409020600a015490565b61026f61026a366004611198565b610695565b005b34801561027d57600080fd5b5061029161028c366004611198565b6109d0565b60405161015491906112db565b3480156102aa57600080fd5b506102d56102b9366004611198565b61ffff9081166000908152602081905260409020600b01541690565b60405161ffff9091168152602001610154565b3480156102f457600080fd5b50610140610303366004611198565b61ffff166000908152602081905260409020600301546001600160a01b031690565b34801561033157600080fd5b5061035c610340366004611198565b61ffff1660009081526020819052604090206006015460ff1690565b6040519015158152602001610154565b34801561037857600080fd5b506101a76103873660046111ba565b61ffff82166000908152602081815260408083206001600160a01b038516845290915290205492915050565b3480156103bf57600080fd5b5061026f6103ce366004611198565b610a7a565b3480156103df57600080fd5b506102916103ee366004611198565b610b12565b3480156103ff57600080fd5b5061029161040e366004611198565b610b37565b34801561041f57600080fd5b5061026f61042e366004611198565b610b5c565b34801561043f57600080fd5b5061026f61044e366004611337565b611026565b34801561045f57600080fd5b5061035c61046e366004611198565b61ffff16600090815260208190526040902060060154610100900460ff1690565b600060208190529081526040902060028101546003820154600483015460068401546007850180546001600160a01b0395861696948616959093169360ff8084169461010090940416929091906104e5906113fa565b80601f0160208091040260200160405190810160405280929190818152602001828054610511906113fa565b801561055e5780601f106105335761010080835404028352916020019161055e565b820191906000526020600020905b81548152906001019060200180831161054157829003601f168201915b505050505090806008018054610573906113fa565b80601f016020809104026020016040519081016040528092919081815260200182805461059f906113fa565b80156105ec5780601f106105c1576101008083540402835291602001916105ec565b820191906000526020600020905b8154815290600101906020018083116105cf57829003601f168201915b505050505090806009018054610601906113fa565b80601f016020809104026020016040519081016040528092919081815260200182805461062d906113fa565b801561067a5780601f1061064f5761010080835404028352916020019161067a565b820191906000526020600020905b81548152906001019060200180831161065d57829003601f168201915b50505050600a830154600b9093015491929161ffff1690508a565b61ffff81166000908152602081905260409020600401546001600160a01b031633036107085760405162461bcd60e51b815260206004820152601f60248201527f546865206269646465722063616e6e6f7420626520746865206472697665720060448201526064015b60405180910390fd5b61ffff81166000908152602081905260409020600a01543410156107815760405162461bcd60e51b815260206004820152602a60248201527f546865206269642063616e6e6f74206265206c6f776572207468616e207468656044820152690818985cd94818dbdcdd60b21b60648201526084016106ff565b61ffff811660009081526020818152604080832060028101546001600160a01b03168452909152902054341161080e5760405162461bcd60e51b815260206004820152602c60248201527f546865206269642063616e6e6f74206265206c6f776572207468616e2074686560448201526b081a1a59da195cdd08189a5960a21b60648201526084016106ff565b61ffff81166000908152602081905260409020600201546001600160a01b0316330361088c5760405162461bcd60e51b815260206004820152602760248201527f546865206269646465722063616e6e6f74206265207468652068696768657374604482015266103134b23232b960c91b60648201526084016106ff565b61ffff811660009081526020819052604090206006015460ff1615156001146108f75760405162461bcd60e51b815260206004820152601c60248201527f5468652062696464696e672074696d652068617320657870697265640000000060448201526064016106ff565b61ffff81166000908152602081815260408083203384529091529020541561095d5761ffff8116600090815260208181526040808320338452808352818420546001909101909252822080549192909161095290849061144a565b909155506109929050565b61ffff81166000908152602081815260408220600501805460018101825590835291200180546001600160a01b031916331790555b61ffff1660008181526020818152604080832033808552818452918420349055938352919052600290910180546001600160a01b0319169091179055565b61ffff811660009081526020819052604090206008018054606091906109f5906113fa565b80601f0160208091040260200160405190810160405280929190818152602001828054610a21906113fa565b8015610a6e5780601f10610a4357610100808354040283529160200191610a6e565b820191906000526020600020905b815481529060010190602001808311610a5157829003601f168201915b50505050509050919050565b61ffff81166000908152602081905260409020600401546001600160a01b03163314610af35760405162461bcd60e51b815260206004820152602260248201527f4f6e6c7920746865206472697665722063616e20636c6f736520746865207269604482015261646560f01b60648201526084016106ff565b61ffff166000908152602081905260409020600601805460ff19169055565b61ffff811660009081526020819052604090206009018054606091906109f5906113fa565b61ffff811660009081526020819052604090206007018054606091906109f5906113fa565b61ffff81166000908152602081905260409020600401546001600160a01b03163314610bde5760405162461bcd60e51b815260206004820152602b60248201527f4f6e6c7920746865206472697665722063616e20696e697469616c697a65207460448201526a6865207061796d656e747360a81b60648201526084016106ff565b61ffff811660009081526020819052604090206006015460ff1615610c455760405162461bcd60e51b815260206004820181905260248201527f5468652062696464696e672074696d6520686173206e6f74206578706972656460448201526064016106ff565b61ffff8116600090815260208190526040902060060154610100900460ff1615610caa5760405162461bcd60e51b8152602060048201526016602482015275151a19481c9a5919481a185cc81899595b881c185a5960521b60448201526064016106ff565b60005b61ffff8216600090815260208190526040902060050154811015610fdb5761ffff821660009081526020819052604090206002810154600590910180546001600160a01b039092169183908110610d0657610d06611462565b6000918252602090912001546001600160a01b031603610e475761ffff8216600090815260208181526040808320600481015460028201546001600160a01b0390811686529190935281842054915192169281156108fc029290818181858888f19350505050158015610d7d573d6000803e3d6000fd5b5061ffff82166000908152602081905260409020600501805482908110610da657610da6611462565b600091825260208083209091015461ffff8516835290829052604082206005810180546001600160a01b03909316936108fc936001939093019290919086908110610df357610df3611462565b60009182526020808320909101546001600160a01b03168352820192909252604090810182205490518115909302929091818181858888f19350505050158015610e41573d6000803e3d6000fd5b50610fc9565b61ffff82166000908152602081905260409020600501805482908110610e6f57610e6f611462565b600091825260208083209091015461ffff8516835290829052604082206005810180546001600160a01b03909316936108fc9390919086908110610eb557610eb5611462565b60009182526020808320909101546001600160a01b03168352820192909252604090810182205490518115909302929091818181858888f19350505050158015610f03573d6000803e3d6000fd5b5061ffff82166000908152602081905260409020600501805482908110610f2c57610f2c611462565b600091825260208083209091015461ffff8516835290829052604082206005810180546001600160a01b03909316936108fc936001939093019290919086908110610f7957610f79611462565b60009182526020808320909101546001600160a01b03168352820192909252604090810182205490518115909302929091818181858888f19350505050158015610fc7573d6000803e3d6000fd5b505b80610fd381611478565b915050610cad565b5061ffff16600090815260208190526040902060028101546003820180546001600160a01b0319166001600160a01b03909216919091179055600601805461ff001916610100179055565b61ffff891660009081526020819052604090206004810180546001600160a01b0319163317905560068101805461ffff1916600117905561106b9060070189896110e8565b5061ffff8916600090815260208190526040902061108d9060080187876110e8565b5061ffff891660009081526020819052604090206110af9060090185856110e8565b5061ffff9889166000908152602081905260409020600a810192909255600b909101805461ffff19169190981617909655505050505050565b8280546110f4906113fa565b90600052602060002090601f016020900481019282611116576000855561115c565b82601f1061112f5782800160ff1982351617855561115c565b8280016001018555821561115c579182015b8281111561115c578235825591602001919060010190611141565b5061116892915061116c565b5090565b5b80821115611168576000815560010161116d565b803561ffff8116811461119357600080fd5b919050565b6000602082840312156111aa57600080fd5b6111b382611181565b9392505050565b600080604083850312156111cd57600080fd5b6111d683611181565b915060208301356001600160a01b03811681146111f257600080fd5b809150509250929050565b6000815180845260005b8181101561122357602081850181015186830182015201611207565b81811115611235576000602083870101525b50601f01601f19169290920160200192915050565b6001600160a01b038b811682528a81166020830152891660408201528715156060820152861515608082015261014060a0820181905260009061128f838201896111fd565b905082810360c08401526112a381886111fd565b905082810360e08401526112b781876111fd565b9150508361010083015261ffff83166101208301529b9a5050505050505050505050565b6020815260006111b360208301846111fd565b60008083601f84011261130057600080fd5b50813567ffffffffffffffff81111561131857600080fd5b60208301915083602082850101111561133057600080fd5b9250929050565b600080600080600080600080600060c08a8c03121561135557600080fd5b61135e8a611181565b985060208a013567ffffffffffffffff8082111561137b57600080fd5b6113878d838e016112ee565b909a50985060408c01359150808211156113a057600080fd5b6113ac8d838e016112ee565b909850965060608c01359150808211156113c557600080fd5b506113d28c828d016112ee565b90955093505060808a013591506113eb60a08b01611181565b90509295985092959850929598565b600181811c9082168061140e57607f821691505b60208210810361142e57634e487b7160e01b600052602260045260246000fd5b50919050565b634e487b7160e01b600052601160045260246000fd5b6000821982111561145d5761145d611434565b500190565b634e487b7160e01b600052603260045260246000fd5b60006001820161148a5761148a611434565b506001019056fea2646970667358221220e523c93c4708406a1cbeb185df6ab3fa3488ab06184cf102faec168dcfc5f6c364736f6c634300080e0033",
    "sourcePath": "c:/Users/eres-/Documents/Tec/7mo8voy9nosemestre/Cryptology/CryptoRide/CryptoRide.sol",
    "compiler": {
        "name": "solc",
        "version": "0.8.14+commit.80d49f37"
    },
    "functionHashes": {
        "bidForRide(uint16)": "50e4dfa6",
        "closeRide(uint16)": "b7be161e",
        "getAvSeats(uint16)": "7598b925",
        "getAvailable(uint16)": "7b9db006",
        "getBaseCost(uint16)": "3e78e81f",
        "getBid(uint16,address)": "7c336569",
        "getDriver(uint16)": "11c83719",
        "getFromTime(uint16)": "d974add5",
        "getHighestBidder(uint16)": "22b473d2",
        "getLocation(uint16)": "d18db889",
        "getPayed(uint16)": "f7acbe2e",
        "getPreviousBid(uint16,address)": "21f77dac",
        "getRider(uint16)": "79a64ca5",
        "getToTime(uint16)": "68e14cd8",
        "idToRide(uint16)": "2f0cfec0",
        "payRide(uint16)": "eb93e0ff",
        "publishRide(uint16,string,string,string,uint256,uint16)": "f769b3c2"
    },
    "gasEstimates": {
        "creation": {
            "codeDepositCost": "1063800",
            "executionCost": "1107",
            "totalCost": "1064907"
        },
        "external": {
            "bidForRide(uint16)": "110946",
            "closeRide(uint16)": "26902",
            "getAvSeats(uint16)": "2629",
            "getAvailable(uint16)": "2579",
            "getBaseCost(uint16)": "2545",
            "getBid(uint16,address)": "2749",
            "getDriver(uint16)": "2574",
            "getFromTime(uint16)": "infinite",
            "getHighestBidder(uint16)": "2618",
            "getLocation(uint16)": "infinite",
            "getPayed(uint16)": "2655",
            "getPreviousBid(uint16,address)": "2734",
            "getRider(uint16)": "2573",
            "getToTime(uint16)": "infinite",
            "idToRide(uint16)": "infinite",
            "payRide(uint16)": "infinite",
            "publishRide(uint16,string,string,string,uint256,uint16)": "infinite"
        }
    }
}